{
  "contractName": "access_control",
  "abi": [
    {
      "anonymous": false,
      "inputs": [
        {
          "indexed": false,
          "internalType": "uint256",
          "name": "deviceId",
          "type": "uint256"
        }
      ],
      "name": "DeviceDeRegistered",
      "type": "event"
    },
    {
      "anonymous": false,
      "inputs": [
        {
          "indexed": false,
          "internalType": "string",
          "name": "name",
          "type": "string"
        },
        {
          "indexed": false,
          "internalType": "uint256",
          "name": "deviceId",
          "type": "uint256"
        },
        {
          "indexed": false,
          "internalType": "address",
          "name": "deviceAddress",
          "type": "address"
        }
      ],
      "name": "DeviceRegistered",
      "type": "event"
    },
    {
      "anonymous": false,
      "inputs": [
        {
          "indexed": false,
          "internalType": "uint256",
          "name": "deviceId",
          "type": "uint256"
        },
        {
          "indexed": false,
          "internalType": "address",
          "name": "managerAddress",
          "type": "address"
        }
      ],
      "name": "ManagerAddedToDevice",
      "type": "event"
    },
    {
      "anonymous": false,
      "inputs": [
        {
          "indexed": false,
          "internalType": "address",
          "name": "managerAddress",
          "type": "address"
        }
      ],
      "name": "ManagerDeRegistered",
      "type": "event"
    },
    {
      "anonymous": false,
      "inputs": [
        {
          "indexed": false,
          "internalType": "string",
          "name": "name",
          "type": "string"
        },
        {
          "indexed": false,
          "internalType": "address",
          "name": "managerAddress",
          "type": "address"
        }
      ],
      "name": "ManagerRegistered",
      "type": "event"
    },
    {
      "anonymous": false,
      "inputs": [
        {
          "indexed": false,
          "internalType": "uint256",
          "name": "deviceId",
          "type": "uint256"
        },
        {
          "indexed": false,
          "internalType": "address",
          "name": "managerAddress",
          "type": "address"
        }
      ],
      "name": "ManagerRemovedFromDevice",
      "type": "event"
    },
    {
      "anonymous": false,
      "inputs": [
        {
          "indexed": false,
          "internalType": "uint256",
          "name": "deviceId",
          "type": "uint256"
        },
        {
          "indexed": false,
          "internalType": "address",
          "name": "managerAddress",
          "type": "address"
        }
      ],
      "name": "PermissionRevoked",
      "type": "event"
    },
    {
      "anonymous": false,
      "inputs": [
        {
          "indexed": false,
          "internalType": "address",
          "name": "managerAddress",
          "type": "address"
        },
        {
          "indexed": false,
          "internalType": "address",
          "name": "constrainedDeviceAddress",
          "type": "address"
        },
        {
          "indexed": false,
          "internalType": "address",
          "name": "newDeviceAddress",
          "type": "address"
        },
        {
          "indexed": false,
          "internalType": "uint256",
          "name": "resource",
          "type": "uint256"
        },
        {
          "indexed": false,
          "internalType": "string",
          "name": "accessRights",
          "type": "string"
        },
        {
          "indexed": false,
          "internalType": "uint256",
          "name": "expirationBlock",
          "type": "uint256"
        }
      ],
      "name": "RuleAdded",
      "type": "event"
    },
    {
      "inputs": [
        {
          "internalType": "uint256",
          "name": "",
          "type": "uint256"
        }
      ],
      "name": "devices",
      "outputs": [
        {
          "internalType": "string",
          "name": "name",
          "type": "string"
        },
        {
          "internalType": "uint256",
          "name": "deviceId",
          "type": "uint256"
        },
        {
          "internalType": "address",
          "name": "deviceAddress",
          "type": "address"
        }
      ],
      "stateMutability": "view",
      "type": "function",
      "constant": true
    },
    {
      "inputs": [
        {
          "internalType": "address",
          "name": "",
          "type": "address"
        }
      ],
      "name": "managers",
      "outputs": [
        {
          "internalType": "string",
          "name": "name",
          "type": "string"
        },
        {
          "internalType": "address",
          "name": "managerAddress",
          "type": "address"
        }
      ],
      "stateMutability": "view",
      "type": "function",
      "constant": true
    },
    {
      "inputs": [
        {
          "internalType": "address",
          "name": "",
          "type": "address"
        },
        {
          "internalType": "address",
          "name": "",
          "type": "address"
        }
      ],
      "name": "rules",
      "outputs": [
        {
          "internalType": "address",
          "name": "managerAddress",
          "type": "address"
        },
        {
          "internalType": "address",
          "name": "constrainedDeviceAddress",
          "type": "address"
        },
        {
          "internalType": "address",
          "name": "newDeviceAddress",
          "type": "address"
        },
        {
          "internalType": "uint256",
          "name": "resource",
          "type": "uint256"
        },
        {
          "internalType": "string",
          "name": "accessRights",
          "type": "string"
        },
        {
          "internalType": "uint256",
          "name": "expirationBlock",
          "type": "uint256"
        }
      ],
      "stateMutability": "view",
      "type": "function",
      "constant": true
    },
    {
      "inputs": [
        {
          "internalType": "address",
          "name": "managerAddress",
          "type": "address"
        },
        {
          "internalType": "string",
          "name": "name",
          "type": "string"
        }
      ],
      "name": "registerManager",
      "outputs": [],
      "stateMutability": "nonpayable",
      "type": "function"
    },
    {
      "inputs": [
        {
          "internalType": "string",
          "name": "name",
          "type": "string"
        },
        {
          "internalType": "uint256",
          "name": "deviceId",
          "type": "uint256"
        },
        {
          "internalType": "address",
          "name": "deviceAddress",
          "type": "address"
        }
      ],
      "name": "registerDevice",
      "outputs": [],
      "stateMutability": "nonpayable",
      "type": "function"
    },
    {
      "inputs": [
        {
          "internalType": "uint256",
          "name": "deviceId",
          "type": "uint256"
        },
        {
          "internalType": "address",
          "name": "managerAddress",
          "type": "address"
        }
      ],
      "name": "addManagerToDevice",
      "outputs": [],
      "stateMutability": "nonpayable",
      "type": "function"
    },
    {
      "inputs": [
        {
          "internalType": "uint256",
          "name": "deviceId",
          "type": "uint256"
        },
        {
          "internalType": "address",
          "name": "managerAddress",
          "type": "address"
        }
      ],
      "name": "removeManagerFromDevice",
      "outputs": [],
      "stateMutability": "nonpayable",
      "type": "function"
    },
    {
      "inputs": [
        {
          "internalType": "address",
          "name": "managerAddress",
          "type": "address"
        },
        {
          "internalType": "address",
          "name": "constrainedDeviceAddress",
          "type": "address"
        },
        {
          "internalType": "address",
          "name": "newDeviceAddress",
          "type": "address"
        },
        {
          "internalType": "uint256",
          "name": "resourceAccess",
          "type": "uint256"
        },
        {
          "internalType": "string",
          "name": "accessRights",
          "type": "string"
        },
        {
          "internalType": "uint256",
          "name": "expirationBlocks",
          "type": "uint256"
        }
      ],
      "name": "addRule",
      "outputs": [
        {
          "internalType": "bool",
          "name": "",
          "type": "bool"
        }
      ],
      "stateMutability": "nonpayable",
      "type": "function"
    },
    {
      "inputs": [
        {
          "internalType": "address",
          "name": "constrainedDeviceAddress",
          "type": "address"
        },
        {
          "internalType": "address",
          "name": "newDeviceAddress",
          "type": "address"
        }
      ],
      "name": "isAllowedDevice",
      "outputs": [
        {
          "internalType": "bool",
          "name": "",
          "type": "bool"
        }
      ],
      "stateMutability": "view",
      "type": "function",
      "constant": true
    },
    {
      "inputs": [
        {
          "internalType": "address",
          "name": "managerAddress",
          "type": "address"
        }
      ],
      "name": "deregisterManager",
      "outputs": [],
      "stateMutability": "nonpayable",
      "type": "function"
    },
    {
      "inputs": [
        {
          "internalType": "uint256",
          "name": "deviceId",
          "type": "uint256"
        }
      ],
      "name": "removeDevice",
      "outputs": [],
      "stateMutability": "nonpayable",
      "type": "function"
    },
    {
      "inputs": [
        {
          "internalType": "address",
          "name": "manager",
          "type": "address"
        },
        {
          "internalType": "address",
          "name": "constrainedDevice",
          "type": "address"
        },
        {
          "internalType": "address",
          "name": "newDevice",
          "type": "address"
        }
      ],
      "name": "revokePermission",
      "outputs": [],
      "stateMutability": "nonpayable",
      "type": "function"
    },
    {
      "inputs": [
        {
          "internalType": "address",
          "name": "managerAddress",
          "type": "address"
        }
      ],
      "name": "getManager",
      "outputs": [
        {
          "internalType": "string",
          "name": "",
          "type": "string"
        },
        {
          "internalType": "address",
          "name": "",
          "type": "address"
        }
      ],
      "stateMutability": "view",
      "type": "function",
      "constant": true
    },
    {
      "inputs": [
        {
          "internalType": "address",
          "name": "constrainedDevice",
          "type": "address"
        },
        {
          "internalType": "address",
          "name": "newDevice",
          "type": "address"
        }
      ],
      "name": "queryPermission",
      "outputs": [
        {
          "internalType": "bool",
          "name": "",
          "type": "bool"
        },
        {
          "internalType": "string",
          "name": "",
          "type": "string"
        },
        {
          "internalType": "uint256",
          "name": "",
          "type": "uint256"
        },
        {
          "internalType": "uint256",
          "name": "",
          "type": "uint256"
        }
      ],
      "stateMutability": "view",
      "type": "function",
      "constant": true
    },
    {
      "inputs": [
        {
          "internalType": "address",
          "name": "deviceAddress",
          "type": "address"
        }
      ],
      "name": "isDeviceRegistered",
      "outputs": [
        {
          "internalType": "bool",
          "name": "",
          "type": "bool"
        },
        {
          "internalType": "string",
          "name": "",
          "type": "string"
        },
        {
          "internalType": "uint256",
          "name": "",
          "type": "uint256"
        },
        {
          "internalType": "address",
          "name": "",
          "type": "address"
        },
        {
          "internalType": "address[]",
          "name": "",
          "type": "address[]"
        }
      ],
      "stateMutability": "view",
      "type": "function",
      "constant": true
    }
  ],
  "bytecode": "0x6080604052600060035534801561001557600080fd5b50613f6f806100256000396000f3fe608060405234801561001057600080fd5b50600436106100f55760003560e01c80636dee665b11610097578063f2f4dfa611610066578063f2f4dfa6146102c9578063f6b4e4ef146102e5578063fdff9b4d14610301578063fe3dcf0814610332576100f5565b80636dee665b1461024257806392d9db8f1461025e5780639fbf3add1461027a578063a3a57ea3146102ad576100f5565b806354beac9a116100d357806354beac9a1461019257806355f75ef6146101c25780635fa8724b146101f2578063659228c91461020e576100f5565b80630a36f49d146100fa57806310ff8e311461012f5780633d58406314610161575b600080fd5b610114600480360381019061010f9190612ef6565b61034e565b60405161012696959493929190613812565b60405180910390f35b610149600480360381019061014491906130dd565b61047f565b60405161015893929190613972565b60405180910390f35b61017b60048036038101906101769190612ecd565b610551565b604051610189929190613942565b60405180910390f35b6101ac60048036038101906101a79190612ef6565b61075d565b6040516101b9919061387a565b60405180910390f35b6101dc60048036038101906101d79190612f81565b610836565b6040516101e9919061387a565b60405180910390f35b61020c600480360381019061020791906130dd565b611023565b005b61022860048036038101906102239190612ecd565b61123a565b604051610239959493929190613895565b60405180910390f35b61025c60048036038101906102579190613106565b6114c0565b005b61027860048036038101906102739190612f32565b61180a565b005b610294600480360381019061028f9190612ef6565b611d3f565b6040516102a494939291906138f6565b60405180910390f35b6102c760048036038101906102c29190613022565b61222f565b005b6102e360048036038101906102de9190613106565b61240c565b005b6102ff60048036038101906102fa9190612ecd565b612815565b005b61031b60048036038101906103169190612ecd565b612998565b604051610329929190613942565b60405180910390f35b61034c60048036038101906103479190613076565b612a64565b005b6002602052816000526040600020602052806000526040600020600091509150508060000160009054906101000a900473ffffffffffffffffffffffffffffffffffffffff16908060010160009054906101000a900473ffffffffffffffffffffffffffffffffffffffff16908060020160009054906101000a900473ffffffffffffffffffffffffffffffffffffffff16908060030154908060040180546103f690613df2565b80601f016020809104026020016040519081016040528092919081815260200182805461042290613df2565b801561046f5780601f106104445761010080835404028352916020019161046f565b820191906000526020600020905b81548152906001019060200180831161045257829003601f168201915b5050505050908060050154905086565b60016020528060005260406000206000915090508060000180546104a290613df2565b80601f01602080910402602001604051908101604052809291908181526020018280546104ce90613df2565b801561051b5780601f106104f05761010080835404028352916020019161051b565b820191906000526020600020905b8154815290600101906020018083116104fe57829003601f168201915b5050505050908060010154908060020160009054906101000a900473ffffffffffffffffffffffffffffffffffffffff16905083565b606060008073ffffffffffffffffffffffffffffffffffffffff166000808573ffffffffffffffffffffffffffffffffffffffff1673ffffffffffffffffffffffffffffffffffffffff16815260200190815260200160002060010160009054906101000a900473ffffffffffffffffffffffffffffffffffffffff1673ffffffffffffffffffffffffffffffffffffffff161415610625576040517f08c379a000000000000000000000000000000000000000000000000000000000815260040161061c906139f0565b60405180910390fd5b6000808473ffffffffffffffffffffffffffffffffffffffff1673ffffffffffffffffffffffffffffffffffffffff1681526020019081526020016000206000016000808573ffffffffffffffffffffffffffffffffffffffff1673ffffffffffffffffffffffffffffffffffffffff16815260200190815260200160002060010160009054906101000a900473ffffffffffffffffffffffffffffffffffffffff168180546106d490613df2565b80601f016020809104026020016040519081016040528092919081815260200182805461070090613df2565b801561074d5780601f106107225761010080835404028352916020019161074d565b820191906000526020600020905b81548152906001019060200180831161073057829003601f168201915b5050505050915091509150915091565b60008073ffffffffffffffffffffffffffffffffffffffff16600260008573ffffffffffffffffffffffffffffffffffffffff1673ffffffffffffffffffffffffffffffffffffffff16815260200190815260200160002060008473ffffffffffffffffffffffffffffffffffffffff1673ffffffffffffffffffffffffffffffffffffffff16815260200190815260200160002060010160009054906101000a900473ffffffffffffffffffffffffffffffffffffffff1673ffffffffffffffffffffffffffffffffffffffff161415905092915050565b60008673ffffffffffffffffffffffffffffffffffffffff163373ffffffffffffffffffffffffffffffffffffffff16146108a6576040517f08c379a000000000000000000000000000000000000000000000000000000000815260040161089d90613bd0565b60405180910390fd5b60008060005b600354811161093e578873ffffffffffffffffffffffffffffffffffffffff166001600083815260200190815260200160002060020160009054906101000a900473ffffffffffffffffffffffffffffffffffffffff1673ffffffffffffffffffffffffffffffffffffffff16141561092b576001925080915061093e565b808061093690613e24565b9150506108ac565b508161097f576040517f08c379a000000000000000000000000000000000000000000000000000000000815260040161097690613bb0565b60405180910390fd5b600073ffffffffffffffffffffffffffffffffffffffff166000808b73ffffffffffffffffffffffffffffffffffffffff1673ffffffffffffffffffffffffffffffffffffffff16815260200190815260200160002060010160009054906101000a900473ffffffffffffffffffffffffffffffffffffffff1673ffffffffffffffffffffffffffffffffffffffff161415610a50576040517f08c379a0000000000000000000000000000000000000000000000000000000008152600401610a4790613ad0565b60405180910390fd5b6000805b6001600084815260200190815260200160002060030180549050811015610b3d578a73ffffffffffffffffffffffffffffffffffffffff16600160008581526020019081526020016000206003018281548110610ada577f4e487b7100000000000000000000000000000000000000000000000000000000600052603260045260246000fd5b9060005260206000200160009054906101000a900473ffffffffffffffffffffffffffffffffffffffff1673ffffffffffffffffffffffffffffffffffffffff161415610b2a5760019150610b3d565b8080610b3590613e24565b915050610a54565b5080610b7e576040517f08c379a0000000000000000000000000000000000000000000000000000000008152600401610b7590613b10565b60405180910390fd5b60008060005b6003548111610c16578a73ffffffffffffffffffffffffffffffffffffffff166001600083815260200190815260200160002060020160009054906101000a900473ffffffffffffffffffffffffffffffffffffffff1673ffffffffffffffffffffffffffffffffffffffff161415610c035760019250809150610c16565b8080610c0e90613e24565b915050610b84565b5081610c57576040517f08c379a0000000000000000000000000000000000000000000000000000000008152600401610c4e90613a90565b60405180910390fd5b8973ffffffffffffffffffffffffffffffffffffffff168b73ffffffffffffffffffffffffffffffffffffffff161415610cc6576040517f08c379a0000000000000000000000000000000000000000000000000000000008152600401610cbd90613a50565b60405180910390fd5b610cd08b8b61075d565b1580610d5a575043600260008d73ffffffffffffffffffffffffffffffffffffffff1673ffffffffffffffffffffffffffffffffffffffff16815260200190815260200160002060008c73ffffffffffffffffffffffffffffffffffffffff1673ffffffffffffffffffffffffffffffffffffffff16815260200190815260200160002060050154105b610d99576040517f08c379a0000000000000000000000000000000000000000000000000000000008152600401610d9090613a10565b60405180910390fd5b438711610ddb576040517f08c379a0000000000000000000000000000000000000000000000000000000008152600401610dd290613bf0565b60405180910390fd5b6040518060c001604052808d73ffffffffffffffffffffffffffffffffffffffff1681526020018c73ffffffffffffffffffffffffffffffffffffffff1681526020018b73ffffffffffffffffffffffffffffffffffffffff1681526020018a815260200189815260200188815250600260008d73ffffffffffffffffffffffffffffffffffffffff1673ffffffffffffffffffffffffffffffffffffffff16815260200190815260200160002060008c73ffffffffffffffffffffffffffffffffffffffff1673ffffffffffffffffffffffffffffffffffffffff16815260200190815260200160002060008201518160000160006101000a81548173ffffffffffffffffffffffffffffffffffffffff021916908373ffffffffffffffffffffffffffffffffffffffff16021790555060208201518160010160006101000a81548173ffffffffffffffffffffffffffffffffffffffff021916908373ffffffffffffffffffffffffffffffffffffffff16021790555060408201518160020160006101000a81548173ffffffffffffffffffffffffffffffffffffffff021916908373ffffffffffffffffffffffffffffffffffffffff160217905550606082015181600301556080820151816004019080519060200190610fc1929190612cad565b5060a082015181600501559050507f5bba5b304fe3c9158a84f200d0210f55da1da51dfee1aca1bec9885664f955d98c8c8c8c8c8c60405161100896959493929190613812565b60405180910390a16001955050505050509695505050505050565b600073ffffffffffffffffffffffffffffffffffffffff166001600083815260200190815260200160002060020160009054906101000a900473ffffffffffffffffffffffffffffffffffffffff1673ffffffffffffffffffffffffffffffffffffffff1614156110c9576040517f08c379a00000000000000000000000000000000000000000000000000000000081526004016110c0906139d0565b60405180910390fd5b60016000828152602001908152602001600020600080820160006110ed9190612d33565b60018201600090556002820160006101000a81549073ffffffffffffffffffffffffffffffffffffffff021916905560038201600061112c9190612d73565b50506003600081548092919061114190613dc8565b91905055507fcb282cc082af9be57983eae41a72f0c54e886cd512044c20bd2efee8d36cd92c816040516111759190613c10565b60405180910390a160005b600160008381526020019081526020016000206003018054905081101561123657611223826001600085815260200190815260200160002060030183815481106111f3577f4e487b7100000000000000000000000000000000000000000000000000000000600052603260045260246000fd5b9060005260206000200160009054906101000a900473ffffffffffffffffffffffffffffffffffffffff1661240c565b808061122e90613e24565b915050611180565b5050565b60006060600080606060008060005b60035481116112db578873ffffffffffffffffffffffffffffffffffffffff166001600083815260200190815260200160002060020160009054906101000a900473ffffffffffffffffffffffffffffffffffffffff1673ffffffffffffffffffffffffffffffffffffffff1614156112c857600191508092506112db565b80806112d390613e24565b915050611249565b508061131c576040517f08c379a000000000000000000000000000000000000000000000000000000000815260040161131390613b50565b60405180910390fd5b600180600084815260200190815260200160002060000160016000858152602001908152602001600020600101546001600086815260200190815260200160002060020160009054906101000a900473ffffffffffffffffffffffffffffffffffffffff16600160008781526020019081526020016000206003018380546113a390613df2565b80601f01602080910402602001604051908101604052809291908181526020018280546113cf90613df2565b801561141c5780601f106113f15761010080835404028352916020019161141c565b820191906000526020600020905b8154815290600101906020018083116113ff57829003601f168201915b50505050509350808054806020026020016040519081016040528092919081815260200182805480156114a457602002820191906000526020600020905b8160009054906101000a900473ffffffffffffffffffffffffffffffffffffffff1673ffffffffffffffffffffffffffffffffffffffff168152602001906001019080831161145a575b5050505050905096509650965096509650505091939590929450565b600073ffffffffffffffffffffffffffffffffffffffff166000808373ffffffffffffffffffffffffffffffffffffffff1673ffffffffffffffffffffffffffffffffffffffff16815260200190815260200160002060010160009054906101000a900473ffffffffffffffffffffffffffffffffffffffff1673ffffffffffffffffffffffffffffffffffffffff161415611591576040517f08c379a000000000000000000000000000000000000000000000000000000000815260040161158890613a30565b60405180910390fd5b600073ffffffffffffffffffffffffffffffffffffffff166001600084815260200190815260200160002060020160009054906101000a900473ffffffffffffffffffffffffffffffffffffffff1673ffffffffffffffffffffffffffffffffffffffff161415611637576040517f08c379a000000000000000000000000000000000000000000000000000000000815260040161162e906139d0565b60405180910390fd5b60005b6001600084815260200190815260200160002060030180549050811015611755578173ffffffffffffffffffffffffffffffffffffffff166001600085815260200190815260200160002060030182815481106116c0577f4e487b7100000000000000000000000000000000000000000000000000000000600052603260045260246000fd5b9060005260206000200160009054906101000a900473ffffffffffffffffffffffffffffffffffffffff1673ffffffffffffffffffffffffffffffffffffffff161415611742576040517f08c379a000000000000000000000000000000000000000000000000000000000815260040161173990613ab0565b60405180910390fd5b808061174d90613e24565b91505061163a565b5060016000838152602001908152602001600020600301819080600181540180825580915050600190039060005260206000200160009091909190916101000a81548173ffffffffffffffffffffffffffffffffffffffff021916908373ffffffffffffffffffffffffffffffffffffffff1602179055507fc89f4a161714af08348f32b39384ad828c23923bfb4afd596f64ddb1aa5bb7f682826040516117fe929190613c2b565b60405180910390a15050565b600073ffffffffffffffffffffffffffffffffffffffff166000808573ffffffffffffffffffffffffffffffffffffffff1673ffffffffffffffffffffffffffffffffffffffff16815260200190815260200160002060010160009054906101000a900473ffffffffffffffffffffffffffffffffffffffff1673ffffffffffffffffffffffffffffffffffffffff1614156118db576040517f08c379a00000000000000000000000000000000000000000000000000000000081526004016118d2906139f0565b60405180910390fd5b60008060005b6003548111611973578473ffffffffffffffffffffffffffffffffffffffff166001600083815260200190815260200160002060020160009054906101000a900473ffffffffffffffffffffffffffffffffffffffff1673ffffffffffffffffffffffffffffffffffffffff1614156119605760019150809250611973565b808061196b90613e24565b9150506118e1565b50806119b4576040517f08c379a00000000000000000000000000000000000000000000000000000000081526004016119ab90613bb0565b60405180910390fd5b60008060005b6003548111611a4c578573ffffffffffffffffffffffffffffffffffffffff166001600083815260200190815260200160002060020160009054906101000a900473ffffffffffffffffffffffffffffffffffffffff1673ffffffffffffffffffffffffffffffffffffffff161415611a395760019150809250611a4c565b8080611a4490613e24565b9150506119ba565b5080611a8d576040517f08c379a0000000000000000000000000000000000000000000000000000000008152600401611a8490613a90565b60405180910390fd5b611a97868661075d565b611ad6576040517f08c379a0000000000000000000000000000000000000000000000000000000008152600401611acd90613b30565b60405180910390fd5b3373ffffffffffffffffffffffffffffffffffffffff16600260008873ffffffffffffffffffffffffffffffffffffffff1673ffffffffffffffffffffffffffffffffffffffff16815260200190815260200160002060008773ffffffffffffffffffffffffffffffffffffffff1673ffffffffffffffffffffffffffffffffffffffff16815260200190815260200160002060000160009054906101000a900473ffffffffffffffffffffffffffffffffffffffff1673ffffffffffffffffffffffffffffffffffffffff1614611be3576040517f08c379a0000000000000000000000000000000000000000000000000000000008152600401611bda90613a70565b60405180910390fd5b600260008773ffffffffffffffffffffffffffffffffffffffff1673ffffffffffffffffffffffffffffffffffffffff16815260200190815260200160002060008673ffffffffffffffffffffffffffffffffffffffff1673ffffffffffffffffffffffffffffffffffffffff168152602001908152602001600020600080820160006101000a81549073ffffffffffffffffffffffffffffffffffffffff02191690556001820160006101000a81549073ffffffffffffffffffffffffffffffffffffffff02191690556002820160006101000a81549073ffffffffffffffffffffffffffffffffffffffff02191690556003820160009055600482016000611ced9190612d33565b6005820160009055505060008490507fab0c0a2f55462a1318f51aa9087bf078e6b5323b2c8cd1e35fe6e6af95ef4f768189604051611d2d929190613c2b565b60405180910390a15050505050505050565b6000606060008060008060005b6003548111611dde578873ffffffffffffffffffffffffffffffffffffffff166001600083815260200190815260200160002060020160009054906101000a900473ffffffffffffffffffffffffffffffffffffffff1673ffffffffffffffffffffffffffffffffffffffff161415611dcb5760019150809250611dde565b8080611dd690613e24565b915050611d4c565b5080611e1f576040517f08c379a0000000000000000000000000000000000000000000000000000000008152600401611e1690613bb0565b60405180910390fd5b60008060005b6003548111611eb7578973ffffffffffffffffffffffffffffffffffffffff166001600083815260200190815260200160002060020160009054906101000a900473ffffffffffffffffffffffffffffffffffffffff1673ffffffffffffffffffffffffffffffffffffffff161415611ea45760019150809250611eb7565b8080611eaf90613e24565b915050611e25565b5080611ef8576040517f08c379a0000000000000000000000000000000000000000000000000000000008152600401611eef90613a90565b60405180910390fd5b611f028a8a61075d565b611f41576040517f08c379a0000000000000000000000000000000000000000000000000000000008152600401611f3890613b30565b60405180910390fd5b600260008b73ffffffffffffffffffffffffffffffffffffffff1673ffffffffffffffffffffffffffffffffffffffff16815260200190815260200160002060008a73ffffffffffffffffffffffffffffffffffffffff1673ffffffffffffffffffffffffffffffffffffffff168152602001908152602001600020600501544310612002576040517f08c379a0000000000000000000000000000000000000000000000000000000008152600401611ff990613b90565b60405180910390fd5b6001600260008c73ffffffffffffffffffffffffffffffffffffffff1673ffffffffffffffffffffffffffffffffffffffff16815260200190815260200160002060008b73ffffffffffffffffffffffffffffffffffffffff1673ffffffffffffffffffffffffffffffffffffffff168152602001908152602001600020600401600260008d73ffffffffffffffffffffffffffffffffffffffff1673ffffffffffffffffffffffffffffffffffffffff16815260200190815260200160002060008c73ffffffffffffffffffffffffffffffffffffffff1673ffffffffffffffffffffffffffffffffffffffff1681526020019081526020016000206003015443600260008f73ffffffffffffffffffffffffffffffffffffffff1673ffffffffffffffffffffffffffffffffffffffff16815260200190815260200160002060008e73ffffffffffffffffffffffffffffffffffffffff1673ffffffffffffffffffffffffffffffffffffffff1681526020019081526020016000206005015461218e9190613d0a565b82805461219a90613df2565b80601f01602080910402602001604051908101604052809291908181526020018280546121c690613df2565b80156122135780601f106121e857610100808354040283529160200191612213565b820191906000526020600020905b8154815290600101906020018083116121f657829003601f168201915b5050505050925097509750975097505050505092959194509250565b600073ffffffffffffffffffffffffffffffffffffffff166000808473ffffffffffffffffffffffffffffffffffffffff1673ffffffffffffffffffffffffffffffffffffffff16815260200190815260200160002060010160009054906101000a900473ffffffffffffffffffffffffffffffffffffffff1673ffffffffffffffffffffffffffffffffffffffff16146122ff576040517f08c379a00000000000000000000000000000000000000000000000000000000081526004016122f6906139b0565b60405180910390fd5b60405180604001604052808281526020018373ffffffffffffffffffffffffffffffffffffffff168152506000808473ffffffffffffffffffffffffffffffffffffffff1673ffffffffffffffffffffffffffffffffffffffff1681526020019081526020016000206000820151816000019080519060200190612384929190612cad565b5060208201518160010160006101000a81548173ffffffffffffffffffffffffffffffffffffffff021916908373ffffffffffffffffffffffffffffffffffffffff1602179055509050507f817955f9f0501a3b74608755c4f6d4c31e4e0750c5c1a277431e8ff89ecfa63a8183604051612400929190613942565b60405180910390a15050565b6000805b60016000858152602001908152602001600020600301805490508110156124f9578273ffffffffffffffffffffffffffffffffffffffff16600160008681526020019081526020016000206003018281548110612496577f4e487b7100000000000000000000000000000000000000000000000000000000600052603260045260246000fd5b9060005260206000200160009054906101000a900473ffffffffffffffffffffffffffffffffffffffff1673ffffffffffffffffffffffffffffffffffffffff1614156124e657600191506124f9565b80806124f190613e24565b915050612410565b508061253a576040517f08c379a000000000000000000000000000000000000000000000000000000000815260040161253190613af0565b60405180910390fd5b60005b60016000858152602001908152602001600020600301805490508110156127d6578273ffffffffffffffffffffffffffffffffffffffff166001600086815260200190815260200160002060030182815481106125c3577f4e487b7100000000000000000000000000000000000000000000000000000000600052603260045260246000fd5b9060005260206000200160009054906101000a900473ffffffffffffffffffffffffffffffffffffffff1673ffffffffffffffffffffffffffffffffffffffff1614156127c357600160008581526020019081526020016000206003016001806000878152602001908152602001600020600301805490506126459190613d0a565b8154811061267c577f4e487b7100000000000000000000000000000000000000000000000000000000600052603260045260246000fd5b9060005260206000200160009054906101000a900473ffffffffffffffffffffffffffffffffffffffff166001600086815260200190815260200160002060030182815481106126f5577f4e487b7100000000000000000000000000000000000000000000000000000000600052603260045260246000fd5b9060005260206000200160006101000a81548173ffffffffffffffffffffffffffffffffffffffff021916908373ffffffffffffffffffffffffffffffffffffffff16021790555060016000858152602001908152602001600020600301805480612789577f4e487b7100000000000000000000000000000000000000000000000000000000600052603160045260246000fd5b6001900381819060005260206000200160006101000a81549073ffffffffffffffffffffffffffffffffffffffff021916905590556127d6565b80806127ce90613e24565b91505061253d565b507f9f063c4cb344012934bd425d88776223b67b8d783467a4827001da012a94a2c58383604051612808929190613c2b565b60405180910390a1505050565b600073ffffffffffffffffffffffffffffffffffffffff166000808373ffffffffffffffffffffffffffffffffffffffff1673ffffffffffffffffffffffffffffffffffffffff16815260200190815260200160002060010160009054906101000a900473ffffffffffffffffffffffffffffffffffffffff1673ffffffffffffffffffffffffffffffffffffffff1614156128e6576040517f08c379a00000000000000000000000000000000000000000000000000000000081526004016128dd90613a30565b60405180910390fd5b6000808273ffffffffffffffffffffffffffffffffffffffff1673ffffffffffffffffffffffffffffffffffffffff168152602001908152602001600020600080820160006129359190612d33565b6001820160006101000a81549073ffffffffffffffffffffffffffffffffffffffff021916905550507f8620023455b66f89dacaa211c6cf9ad4b0f806c6ee69b56392c3b49e9821594d8160405161298d91906137f7565b60405180910390a150565b60006020528060005260406000206000915090508060000180546129bb90613df2565b80601f01602080910402602001604051908101604052809291908181526020018280546129e790613df2565b8015612a345780601f10612a0957610100808354040283529160200191612a34565b820191906000526020600020905b815481529060010190602001808311612a1757829003601f168201915b5050505050908060010160009054906101000a900473ffffffffffffffffffffffffffffffffffffffff16905082565b600073ffffffffffffffffffffffffffffffffffffffff166001600084815260200190815260200160002060020160009054906101000a900473ffffffffffffffffffffffffffffffffffffffff1673ffffffffffffffffffffffffffffffffffffffff1614612b09576040517f08c379a0000000000000000000000000000000000000000000000000000000008152600401612b0090613b70565b60405180910390fd5b60008067ffffffffffffffff811115612b4b577f4e487b7100000000000000000000000000000000000000000000000000000000600052604160045260246000fd5b604051908082528060200260200182016040528015612b795781602001602082028036833780820191505090505b50905060405180608001604052808581526020018481526020018373ffffffffffffffffffffffffffffffffffffffff16815260200182815250600160008581526020019081526020016000206000820151816000019080519060200190612be2929190612cad565b506020820151816001015560408201518160020160006101000a81548173ffffffffffffffffffffffffffffffffffffffff021916908373ffffffffffffffffffffffffffffffffffffffff1602179055506060820151816003019080519060200190612c50929190612d94565b5090505060036000815480929190612c6790613e24565b91905055507f1dd4c713a668293cb0eccc1e65ae64c7e02de68a303822393d582d5c6c4fb521848484604051612c9f93929190613972565b60405180910390a150505050565b828054612cb990613df2565b90600052602060002090601f016020900481019282612cdb5760008555612d22565b82601f10612cf457805160ff1916838001178555612d22565b82800160010185558215612d22579182015b82811115612d21578251825591602001919060010190612d06565b5b509050612d2f9190612e1e565b5090565b508054612d3f90613df2565b6000825580601f10612d515750612d70565b601f016020900490600052602060002090810190612d6f9190612e1e565b5b50565b5080546000825590600052602060002090810190612d919190612e1e565b50565b828054828255906000526020600020908101928215612e0d579160200282015b82811115612e0c5782518260006101000a81548173ffffffffffffffffffffffffffffffffffffffff021916908373ffffffffffffffffffffffffffffffffffffffff16021790555091602001919060010190612db4565b5b509050612e1a9190612e1e565b5090565b5b80821115612e37576000816000905550600101612e1f565b5090565b6000612e4e612e4984613c85565b613c54565b905082815260208101848484011115612e6657600080fd5b612e71848285613d86565b509392505050565b600081359050612e8881613f0b565b92915050565b600082601f830112612e9f57600080fd5b8135612eaf848260208601612e3b565b91505092915050565b600081359050612ec781613f22565b92915050565b600060208284031215612edf57600080fd5b6000612eed84828501612e79565b91505092915050565b60008060408385031215612f0957600080fd5b6000612f1785828601612e79565b9250506020612f2885828601612e79565b9150509250929050565b600080600060608486031215612f4757600080fd5b6000612f5586828701612e79565b9350506020612f6686828701612e79565b9250506040612f7786828701612e79565b9150509250925092565b60008060008060008060c08789031215612f9a57600080fd5b6000612fa889828a01612e79565b9650506020612fb989828a01612e79565b9550506040612fca89828a01612e79565b9450506060612fdb89828a01612eb8565b935050608087013567ffffffffffffffff811115612ff857600080fd5b61300489828a01612e8e565b92505060a061301589828a01612eb8565b9150509295509295509295565b6000806040838503121561303557600080fd5b600061304385828601612e79565b925050602083013567ffffffffffffffff81111561306057600080fd5b61306c85828601612e8e565b9150509250929050565b60008060006060848603121561308b57600080fd5b600084013567ffffffffffffffff8111156130a557600080fd5b6130b186828701612e8e565b93505060206130c286828701612eb8565b92505060406130d386828701612e79565b9150509250925092565b6000602082840312156130ef57600080fd5b60006130fd84828501612eb8565b91505092915050565b6000806040838503121561311957600080fd5b600061312785828601612eb8565b925050602061313885828601612e79565b9150509250929050565b600061314e838361315a565b60208301905092915050565b61316381613d3e565b82525050565b61317281613d3e565b82525050565b600061318382613cc5565b61318d8185613ce8565b935061319883613cb5565b8060005b838110156131c95781516131b08882613142565b97506131bb83613cdb565b92505060018101905061319c565b5085935050505092915050565b6131df81613d50565b82525050565b60006131f082613cd0565b6131fa8185613cf9565b935061320a818560208601613d95565b61321381613efa565b840191505092915050565b600061322b601b83613cf9565b91507f4d616e6167657220616c726561647920726567697374657265642e00000000006000830152602082019050919050565b600061326b601683613cf9565b91507f446576696365206e6f7420726567697374657265642e000000000000000000006000830152602082019050919050565b60006132ab601783613cf9565b91507f4d616e6167657220646f6573206e6f742065786973742e0000000000000000006000830152602082019050919050565b60006132eb603e83613cf9565b91507f436f6e73747261696e65642064657669636520697320616c726561647920616c60008301527f6c6f77656420746f2061636365737320746865206e65772064657669636500006020830152604082019050919050565b6000613351601783613cf9565b91507f4d616e61676572206e6f7420726567697374657265642e0000000000000000006000830152602082019050919050565b6000613391602e83613cf9565b91507f436f6e73747261696e65642064657669636520616e64206e657720646576696360008301527f6520617265207468652073616d650000000000000000000000000000000000006020830152604082019050919050565b60006133f7603383613cf9565b91507f4f6e6c7920746865206d616e616765722077686f20637265617465642074686560008301527f2072756c652063616e207265766f6b65206974000000000000000000000000006020830152604082019050919050565b600061345d601983613cf9565b91507f4e65772064657669636520646f6573206e6f74206578697374000000000000006000830152602082019050919050565b600061349d602083613cf9565b91507f4d616e6167657220616c726561647920616464656420746f206465766963652e6000830152602082019050919050565b60006134dd601983613cf9565b91507f4d616e61676572206973206e6f742072656769737465726564000000000000006000830152602082019050919050565b600061351d601c83613cf9565b91507f4d616e61676572206e6f7420616464656420746f206465766963652e000000006000830152602082019050919050565b600061355d602e83613cf9565b91507f4d616e61676572206973206e6f7420616464656420746f2074686520636f6e7360008301527f747261696e6564206465766963650000000000000000000000000000000000006020830152604082019050919050565b60006135c3602c83613cf9565b91507f4e6f2072756c652065786973747320666f722074686520676976656e2070616960008301527f72206f66206465766963657300000000000000000000000000000000000000006020830152604082019050919050565b6000613629601583613cf9565b91507f44657669636520646f6573206e6f7420657869737400000000000000000000006000830152602082019050919050565b6000613669601a83613cf9565b91507f44657669636520616c726561647920726567697374657265642e0000000000006000830152602082019050919050565b60006136a9603683613cf9565b91507f4e6f20756e657870697265642072756c652065786973747320666f722074686560008301527f20676976656e2070616972206f662064657669636573000000000000000000006020830152604082019050919050565b600061370f602183613cf9565b91507f436f6e73747261696e65642064657669636520646f6573206e6f74206578697360008301527f74000000000000000000000000000000000000000000000000000000000000006020830152604082019050919050565b6000613775601f83613cf9565b91507f4f6e6c7920746865206d616e616765722063616e2061646420612072756c65006000830152602082019050919050565b60006137b5602083613cf9565b91507f45787069726174696f6e20626c6f636b20697320696e2074686520706173742e6000830152602082019050919050565b6137f181613d7c565b82525050565b600060208201905061380c6000830184613169565b92915050565b600060c0820190506138276000830189613169565b6138346020830188613169565b6138416040830187613169565b61384e60608301866137e8565b818103608083015261386081856131e5565b905061386f60a08301846137e8565b979650505050505050565b600060208201905061388f60008301846131d6565b92915050565b600060a0820190506138aa60008301886131d6565b81810360208301526138bc81876131e5565b90506138cb60408301866137e8565b6138d86060830185613169565b81810360808301526138ea8184613178565b90509695505050505050565b600060808201905061390b60008301876131d6565b818103602083015261391d81866131e5565b905061392c60408301856137e8565b61393960608301846137e8565b95945050505050565b6000604082019050818103600083015261395c81856131e5565b905061396b6020830184613169565b9392505050565b6000606082019050818103600083015261398c81866131e5565b905061399b60208301856137e8565b6139a86040830184613169565b949350505050565b600060208201905081810360008301526139c98161321e565b9050919050565b600060208201905081810360008301526139e98161325e565b9050919050565b60006020820190508181036000830152613a098161329e565b9050919050565b60006020820190508181036000830152613a29816132de565b9050919050565b60006020820190508181036000830152613a4981613344565b9050919050565b60006020820190508181036000830152613a6981613384565b9050919050565b60006020820190508181036000830152613a89816133ea565b9050919050565b60006020820190508181036000830152613aa981613450565b9050919050565b60006020820190508181036000830152613ac981613490565b9050919050565b60006020820190508181036000830152613ae9816134d0565b9050919050565b60006020820190508181036000830152613b0981613510565b9050919050565b60006020820190508181036000830152613b2981613550565b9050919050565b60006020820190508181036000830152613b49816135b6565b9050919050565b60006020820190508181036000830152613b698161361c565b9050919050565b60006020820190508181036000830152613b898161365c565b9050919050565b60006020820190508181036000830152613ba98161369c565b9050919050565b60006020820190508181036000830152613bc981613702565b9050919050565b60006020820190508181036000830152613be981613768565b9050919050565b60006020820190508181036000830152613c09816137a8565b9050919050565b6000602082019050613c2560008301846137e8565b92915050565b6000604082019050613c4060008301856137e8565b613c4d6020830184613169565b9392505050565b6000604051905081810181811067ffffffffffffffff82111715613c7b57613c7a613ecb565b5b8060405250919050565b600067ffffffffffffffff821115613ca057613c9f613ecb565b5b601f19601f8301169050602081019050919050565b6000819050602082019050919050565b600081519050919050565b600081519050919050565b6000602082019050919050565b600082825260208201905092915050565b600082825260208201905092915050565b6000613d1582613d7c565b9150613d2083613d7c565b925082821015613d3357613d32613e6d565b5b828203905092915050565b6000613d4982613d5c565b9050919050565b60008115159050919050565b600073ffffffffffffffffffffffffffffffffffffffff82169050919050565b6000819050919050565b82818337600083830152505050565b60005b83811015613db3578082015181840152602081019050613d98565b83811115613dc2576000848401525b50505050565b6000613dd382613d7c565b91506000821415613de757613de6613e6d565b5b600182039050919050565b60006002820490506001821680613e0a57607f821691505b60208210811415613e1e57613e1d613e9c565b5b50919050565b6000613e2f82613d7c565b91507fffffffffffffffffffffffffffffffffffffffffffffffffffffffffffffffff821415613e6257613e61613e6d565b5b600182019050919050565b7f4e487b7100000000000000000000000000000000000000000000000000000000600052601160045260246000fd5b7f4e487b7100000000000000000000000000000000000000000000000000000000600052602260045260246000fd5b7f4e487b7100000000000000000000000000000000000000000000000000000000600052604160045260246000fd5b6000601f19601f8301169050919050565b613f1481613d3e565b8114613f1f57600080fd5b50565b613f2b81613d7c565b8114613f3657600080fd5b5056fea264697066735822122031d4f9b7879402fbfcc937c51b1f198d355434bf7851598890f517d744f43b2364736f6c63430008000033",
  "immutableReferences": {},
  "source": "pragma solidity ^0.8.0;\r\n\r\ncontract access_control {\r\n\r\n    // Structs to store information about managers, devices and rules\r\n    struct Manager {\r\n        string name;\r\n        address managerAddress;\r\n    }\r\n\r\n    struct Device {\r\n    string name;\r\n    uint deviceId;\r\n    address deviceAddress;\r\n    address[] managers;\r\n}\r\n\r\n    struct Rule {\r\n        address managerAddress;\r\n        address constrainedDeviceAddress;\r\n        address newDeviceAddress;\r\n        uint resource;\r\n        string accessRights;\r\n        uint expirationBlock;\r\n    }\r\n\r\n    // Mapping to store information about registered managers, devices and rules\r\n    mapping(address => Manager) public managers;\r\n    mapping(uint => Device) public devices;\r\n    mapping(address => mapping(address => Rule)) public rules;\r\n\r\n    uint deviceNumber = 0;\r\n\r\n    // Events to notify clients of important contract events\r\n    event ManagerRegistered(string name, address managerAddress);\r\n    event DeviceRegistered(string name, uint deviceId, address deviceAddress);\r\n    event ManagerAddedToDevice(uint deviceId, address managerAddress);\r\n    event ManagerRemovedFromDevice(uint deviceId, address managerAddress);\r\n    event RuleAdded(address managerAddress, address constrainedDeviceAddress, address newDeviceAddress, uint resource, string accessRights, uint expirationBlock);\r\n    event ManagerDeRegistered(address managerAddress);\r\n    event DeviceDeRegistered(uint deviceId);\r\n    event PermissionRevoked(uint deviceId, address managerAddress);\r\n\r\n    // Function to register a manager\r\n      function registerManager(address managerAddress, string memory name) public {\r\n        require(managers[managerAddress].managerAddress == address(0), \"Manager already registered.\");\r\n        managers[managerAddress] = Manager(name, managerAddress);\r\n        emit ManagerRegistered(name, managerAddress);\r\n    }\r\n\r\n    //Function to register a device\r\n    function registerDevice(string memory name, uint deviceId, address deviceAddress) public {\r\n        //Check that device is not already registered\r\n        require(devices[deviceId].deviceAddress == address(0), \"Device already registered.\");\r\n        address[] memory emptyArray = new address[](0);\r\n        devices[deviceId] = Device(name, deviceId, deviceAddress, emptyArray);\r\n        deviceNumber++;\r\n        emit DeviceRegistered(name, deviceId , deviceAddress);\r\n    }\r\n\r\n    //Function to add a manager to a device\r\n\r\n    function addManagerToDevice(uint deviceId, address managerAddress) public {\r\n        //Check that manager is registered\r\n        require(managers[managerAddress].managerAddress != address(0), \"Manager not registered.\");\r\n        //Check that device is registered\r\n        require(devices[deviceId].deviceAddress != address(0), \"Device not registered.\");\r\n        //Check that the manager is not already added to the device but first check for the null devices[deviceId] case\r\n        for(uint i=0;i<devices[deviceId].managers.length;i++){\r\n        require(devices[deviceId].managers[i] != managerAddress, \"Manager already added to device.\");\r\n        }\r\n        \r\n        //Add the manager to the device\r\n        devices[deviceId].managers.push(managerAddress);\r\n\r\n        //Add the device to the manager\r\n        emit ManagerAddedToDevice(deviceId, managerAddress);\r\n    }\r\n    \r\n\r\n    // Function to remove a manager from a device\r\n    function removeManagerFromDevice(uint deviceId, address managerAddress) public {\r\n        //Check that manager is added to the device\r\n            bool managerFound = false;\r\n            for(uint i=0;i<devices[deviceId].managers.length;i++){\r\n                if(devices[deviceId].managers[i] == managerAddress){\r\n                    managerFound = true;\r\n                    break;\r\n                }\r\n            }\r\n            require(managerFound, \"Manager not added to device.\");\r\n\r\n        //Remove the manager from the device\r\n        for (uint i = 0; i < devices[deviceId].managers.length; i++) {\r\n            if (devices[deviceId].managers[i] == managerAddress) {\r\n                devices[deviceId].managers[i] = devices[deviceId].managers[devices[deviceId].managers.length - 1];\r\n                devices[deviceId].managers.pop();\r\n                break;\r\n            }\r\n        }\r\n        emit ManagerRemovedFromDevice(deviceId, managerAddress);\r\n    }\r\n\r\n    function addRule(address managerAddress, address constrainedDeviceAddress, address newDeviceAddress, uint resourceAccess, string memory accessRights, uint expirationBlocks) public returns (bool) {\r\n    // Check that the caller of the function is the manager\r\n    require(msg.sender == managerAddress, \"Only the manager can add a rule\");\r\n\r\n    //Find the constrained device index in devices array\r\n    bool constrainedDeviceFound = false;  \r\n    uint constrainedDeviceIndex = 0;\r\n    for (uint i = 0; i <= deviceNumber; i++) {\r\n        if (devices[i].deviceAddress == constrainedDeviceAddress) {\r\n            constrainedDeviceFound = true;\r\n            constrainedDeviceIndex = i;\r\n            break;\r\n        }\r\n    }\r\n\r\n    // Check that the constrained device is registered\r\n    require(constrainedDeviceFound, \"Constrained device does not exist\");\r\n\r\n    // Check that the manager is registered\r\n    require(managers[managerAddress].managerAddress != address(0), \"Manager is not registered\");\r\n\r\n    // Check that the manager is added to the constrained device\r\n    bool managerFound = false;\r\n    for (uint i = 0; i < devices[constrainedDeviceIndex].managers.length; i++) {\r\n        if (devices[constrainedDeviceIndex].managers[i] == managerAddress) {\r\n            managerFound = true;\r\n            break;\r\n        }\r\n    }\r\n    require(managerFound, \"Manager is not added to the constrained device\");\r\n\r\n    //Find the new device's index in devices array\r\n    bool newDeviceFound = false;\r\n    uint newDeviceIndex = 0;\r\n    for (uint i = 0; i <= deviceNumber; i++) {\r\n        if (devices[i].deviceAddress == newDeviceAddress) {\r\n            newDeviceFound = true;\r\n            newDeviceIndex = i;\r\n            break;\r\n        }\r\n    }\r\n\r\n    // Check that the new device is registered\r\n    require(newDeviceFound, \"New device does not exist\");\r\n\r\n    // Check that the constrained device is not the new device\r\n    require(constrainedDeviceAddress != newDeviceAddress, \"Constrained device and new device are the same\");\r\n\r\n    // Check that the constrained device is not already allowed to access the new device\r\n    require(!isAllowedDevice(constrainedDeviceAddress, newDeviceAddress) || rules[constrainedDeviceAddress][newDeviceAddress].expirationBlock < block.number, \"Constrained device is already allowed to access the new device\");\r\n\r\n    // Check that the expiration block is not in the past\r\n    require(expirationBlocks > block.number, \"Expiration block is in the past.\");\r\n\r\n    // Add the rule\r\n    rules[constrainedDeviceAddress][newDeviceAddress] = Rule(managerAddress, constrainedDeviceAddress, newDeviceAddress, resourceAccess, accessRights, expirationBlocks);\r\n    emit RuleAdded(managerAddress, constrainedDeviceAddress, newDeviceAddress, resourceAccess, accessRights, expirationBlocks);\r\n    return true;\r\n\r\n}\r\n\r\n    function isAllowedDevice(address constrainedDeviceAddress, address newDeviceAddress) public view returns (bool) {\r\n        return rules[constrainedDeviceAddress][newDeviceAddress].constrainedDeviceAddress != address(0);\r\n    }\r\n\r\n    \r\n    function deregisterManager (address managerAddress) public {\r\n        require(managers[managerAddress].managerAddress != address(0), \"Manager not registered.\");\r\n        delete managers[managerAddress];\r\n        emit ManagerDeRegistered(managerAddress);\r\n    }\r\n    \r\n\r\n    function removeDevice (uint deviceId) public {\r\n        require(devices[deviceId].deviceAddress != address(0), \"Device not registered.\");\r\n        delete devices[deviceId];\r\n        deviceNumber--;\r\n        emit DeviceDeRegistered(deviceId);\r\n\r\n    //remove device from the list of managed devices for each manager\r\n    for (uint i = 0; i < devices[deviceId].managers.length; i++) {\r\n        removeManagerFromDevice(deviceId, devices[deviceId].managers[i]);\r\n    }\r\n\r\n    }\r\n\r\n    //function to revoke permission\r\n    function revokePermission(address manager, address constrainedDevice, address newDevice) public {\r\n        //Check that manager exists\r\n        require(managers[manager].managerAddress != address(0), \"Manager does not exist.\");\r\n\r\n        //Find the constrained device index in devices array\r\n        uint constrainedDeviceIndex = 0;\r\n        bool constrainedDeviceFound = false;\r\n        for (uint i = 0; i <= deviceNumber; i++) {\r\n            if (devices[i].deviceAddress == constrainedDevice) {\r\n                constrainedDeviceFound = true;\r\n                constrainedDeviceIndex = i;\r\n                break;\r\n            }\r\n        }\r\n\r\n        require(constrainedDeviceFound, \"Constrained device does not exist\");\r\n\r\n        //Find the new device's index in devices array\r\n        uint newDeviceIndex = 0;\r\n        bool newDeviceFound = false;\r\n        for (uint i = 0; i <= deviceNumber; i++) {\r\n            if (devices[i].deviceAddress == newDevice) {\r\n                newDeviceFound = true;\r\n                newDeviceIndex = i;\r\n                break;\r\n            }\r\n        }\r\n        require(newDeviceFound, \"New device does not exist\");\r\n\r\n        // Check if there is an existing rule for the given pair of devices\r\n        require(isAllowedDevice(constrainedDevice, newDevice), \"No rule exists for the given pair of devices\");\r\n\r\n        // Ensure the sender is the manager who created the rule\r\n        require(rules[constrainedDevice][newDevice].managerAddress == msg.sender, \"Only the manager who created the rule can revoke it\");\r\n\r\n        // Remove the rule\r\n        delete rules[constrainedDevice][newDevice];\r\n\r\n        //Logic that deviceId equals to the index of the device in the devices array\r\n        uint deviceId = constrainedDeviceIndex;\r\n\r\n        // Emit an event to notify clients of the rule revocation\r\n        emit PermissionRevoked(deviceId, manager);\r\n    \r\n    }\r\n\r\n\r\n        function getManager(address managerAddress) public view returns (string memory, address) {\r\n        //Check that manager exists\r\n        require(managers[managerAddress].managerAddress != address(0), \"Manager does not exist.\");\r\n        return (managers[managerAddress].name, managers[managerAddress].managerAddress);\r\n    }\r\n\r\n        function queryPermission(address constrainedDevice, address newDevice) public view returns (bool, string memory, uint, uint) {\r\n        //Find the constrained device index in devices array\r\n        uint constrainedDeviceIndex = 0;\r\n        bool constrainedDeviceFound = false;\r\n        for (uint i = 0; i <= deviceNumber; i++) {\r\n            if (devices[i].deviceAddress == constrainedDevice) {\r\n                constrainedDeviceFound = true;\r\n                constrainedDeviceIndex = i;\r\n                break;\r\n            }\r\n        }\r\n\r\n        require(constrainedDeviceFound, \"Constrained device does not exist\");\r\n\r\n        //Find the new device's index in devices array\r\n        uint newDeviceIndex = 0;\r\n        bool newDeviceFound = false;\r\n        for (uint i = 0; i <= deviceNumber; i++) {\r\n            if (devices[i].deviceAddress == newDevice) {\r\n                newDeviceFound = true;\r\n                newDeviceIndex = i;\r\n                break;\r\n            }\r\n        }\r\n        require(newDeviceFound, \"New device does not exist\");\r\n\r\n        // Check if there is an existing rule for the given pair of devices\r\n        require(isAllowedDevice(constrainedDevice, newDevice), \"No rule exists for the given pair of devices\"); {\r\n        }\r\n\r\n        // Check if the rule has expired\r\n        require(block.number < rules[constrainedDevice][newDevice].expirationBlock, \"No unexpired rule exists for the given pair of devices\"); {\r\n        }\r\n\r\n\r\n        return (true, rules[constrainedDevice][newDevice].accessRights, rules[constrainedDevice][newDevice].resource, rules[constrainedDevice][newDevice].expirationBlock - block.number);\r\n\r\n        }\r\n\r\n        //Function to check whether a device is registered\r\n        function isDeviceRegistered(address deviceAddress) public view returns (bool, string memory, uint, address, address[] memory) {\r\n        //Find the device index in devices array\r\n        uint deviceIndex = 0;\r\n        bool deviceFound = false;\r\n        for (uint i = 0; i <= deviceNumber; i++) {\r\n            if (devices[i].deviceAddress == deviceAddress) {\r\n                deviceFound = true;\r\n                deviceIndex = i;\r\n                break;\r\n            }\r\n        }\r\n\r\n        require(deviceFound, \"Device does not exist\");\r\n        \r\n        return (true, devices[deviceIndex].name, devices[deviceIndex].deviceId, devices[deviceIndex].deviceAddress, devices[deviceIndex].managers);\r\n        }\r\n\r\n}\r\n\r\n    ",
  "sourcePath": "C:\\Users\\Omerta\\contracts\\access_control.sol",
  "compiler": {
    "name": "solc",
    "version": "0.8.0+commit.c7dfd78e.Emscripten.clang"
  },
  "schemaVersion": "3.4.13",
  "updatedAt": "2023-04-19T11:14:12.050Z",
  "networkType": "ethereum",
  "devdoc": {
    "kind": "dev",
    "methods": {},
    "version": 1
  },
  "userdoc": {
    "kind": "user",
    "methods": {},
    "version": 1
  }
}